{
  "contractName": "FlightSuretyData",
  "abi": [
    {
      "inputs": [],
      "stateMutability": "nonpayable",
      "type": "constructor"
    },
    {
      "anonymous": false,
      "inputs": [
        {
          "indexed": false,
          "internalType": "address",
          "name": "sponsorAddress",
          "type": "address"
        },
        {
          "indexed": false,
          "internalType": "uint256",
          "name": "amountPaid",
          "type": "uint256"
        }
      ],
      "name": "FundingReceived",
      "type": "event"
    },
    {
      "anonymous": false,
      "inputs": [
        {
          "indexed": false,
          "internalType": "address",
          "name": "insureeAddress",
          "type": "address"
        },
        {
          "indexed": false,
          "internalType": "bytes32",
          "name": "insuredObjectKey",
          "type": "bytes32"
        },
        {
          "indexed": false,
          "internalType": "uint256",
          "name": "state",
          "type": "uint256"
        }
      ],
      "name": "InsurancePolicyStateChanged",
      "type": "event"
    },
    {
      "anonymous": false,
      "inputs": [
        {
          "indexed": false,
          "internalType": "address",
          "name": "insurerAddress",
          "type": "address"
        },
        {
          "indexed": false,
          "internalType": "uint256",
          "name": "state",
          "type": "uint256"
        }
      ],
      "name": "InsurerStateChanged",
      "type": "event"
    },
    {
      "inputs": [
        {
          "internalType": "bytes32",
          "name": "insuredObjectKey",
          "type": "bytes32"
        }
      ],
      "name": "approveAllInsuranceCreditWithdraws",
      "outputs": [],
      "stateMutability": "nonpayable",
      "type": "function"
    },
    {
      "inputs": [
        {
          "internalType": "address",
          "name": "dataContract",
          "type": "address"
        }
      ],
      "name": "authorizeContractCaller",
      "outputs": [],
      "stateMutability": "nonpayable",
      "type": "function"
    },
    {
      "inputs": [
        {
          "internalType": "address",
          "name": "insureeAddress",
          "type": "address"
        },
        {
          "internalType": "bytes32",
          "name": "insuredObjectKey",
          "type": "bytes32"
        }
      ],
      "name": "buyInsurance",
      "outputs": [],
      "stateMutability": "payable",
      "type": "function"
    },
    {
      "inputs": [
        {
          "internalType": "bytes32",
          "name": "insuredObjectKey",
          "type": "bytes32"
        }
      ],
      "name": "closeAllInsurances",
      "outputs": [],
      "stateMutability": "nonpayable",
      "type": "function"
    },
    {
      "inputs": [
        {
          "internalType": "address",
          "name": "dataContract",
          "type": "address"
        }
      ],
      "name": "deauthorizeContractCaller",
      "outputs": [],
      "stateMutability": "nonpayable",
      "type": "function"
    },
    {
      "inputs": [],
      "name": "getInsurerFee",
      "outputs": [
        {
          "internalType": "uint256",
          "name": "",
          "type": "uint256"
        }
      ],
      "stateMutability": "view",
      "type": "function"
    },
    {
      "inputs": [],
      "name": "getNumberOfFullyQualifiedInsurersRequiredForMultiParityConsensus",
      "outputs": [
        {
          "internalType": "uint256",
          "name": "",
          "type": "uint256"
        }
      ],
      "stateMutability": "view",
      "type": "function"
    },
    {
      "inputs": [],
      "name": "isContractOperational",
      "outputs": [
        {
          "internalType": "bool",
          "name": "",
          "type": "bool"
        }
      ],
      "stateMutability": "view",
      "type": "function"
    },
    {
      "inputs": [],
      "name": "pauseContract",
      "outputs": [],
      "stateMutability": "nonpayable",
      "type": "function"
    },
    {
      "inputs": [
        {
          "internalType": "address",
          "name": "insurerAddress",
          "type": "address"
        }
      ],
      "name": "payInsurerFee",
      "outputs": [],
      "stateMutability": "payable",
      "type": "function"
    },
    {
      "inputs": [
        {
          "internalType": "bytes32",
          "name": "insuredObjectKey",
          "type": "bytes32"
        }
      ],
      "name": "registerInsuredObject",
      "outputs": [],
      "stateMutability": "nonpayable",
      "type": "function"
    },
    {
      "inputs": [
        {
          "internalType": "address",
          "name": "approverInsurerAddress",
          "type": "address"
        },
        {
          "internalType": "address",
          "name": "insurerAddress",
          "type": "address"
        }
      ],
      "name": "registerInsurer",
      "outputs": [],
      "stateMutability": "nonpayable",
      "type": "function"
    },
    {
      "inputs": [
        {
          "internalType": "address",
          "name": "insurerAddress",
          "type": "address"
        }
      ],
      "name": "registerTheFirstInsurer",
      "outputs": [],
      "stateMutability": "nonpayable",
      "type": "function"
    },
    {
      "inputs": [],
      "name": "resumeContract",
      "outputs": [],
      "stateMutability": "nonpayable",
      "type": "function"
    },
    {
      "inputs": [
        {
          "internalType": "uint256",
          "name": "_minInsurancePrice",
          "type": "uint256"
        },
        {
          "internalType": "uint256",
          "name": "_maxInsurancePrice",
          "type": "uint256"
        }
      ],
      "name": "setInsuranceConfigParams",
      "outputs": [],
      "stateMutability": "nonpayable",
      "type": "function"
    },
    {
      "inputs": [
        {
          "internalType": "uint256",
          "name": "_insurerFee",
          "type": "uint256"
        },
        {
          "internalType": "uint256",
          "name": "_numberOfFullyQualifiedInsurersRequiredForMultiParityConsensus",
          "type": "uint256"
        }
      ],
      "name": "setInsurerConfigParams",
      "outputs": [],
      "stateMutability": "nonpayable",
      "type": "function"
    },
    {
      "inputs": [
        {
          "internalType": "address",
          "name": "insureeAddress",
          "type": "address"
        },
        {
          "internalType": "bytes32",
          "name": "insuredObjectKey",
          "type": "bytes32"
        }
      ],
      "name": "withdrawInsuranceCredit",
      "outputs": [],
      "stateMutability": "nonpayable",
      "type": "function"
    },
    {
      "stateMutability": "payable",
      "type": "receive"
    }
  ],
  "bytecode": "0x60806040526001600060146101000a81548160ff021916908315150217905550678ac7230489e80000600355600480556001600755670de0b6b3a764000060085534801561004c57600080fd5b50336000806101000a81548173ffffffffffffffffffffffffffffffffffffffff021916908373ffffffffffffffffffffffffffffffffffffffff16021790555061340f8061009c6000396000f3fe6080604052600436106101025760003560e01c8063adf8ae7a11610095578063c7974cae11610064578063c7974cae146103a5578063d3ce2108146103d0578063d87e44ab146103f9578063e75808da14610422578063f6ece3c41461044d576101f0565b8063adf8ae7a14610320578063baf2a0181461033c578063be1f7e0614610365578063c4bc5da51461038e576101f0565b806344e74e99116100d157806344e74e991461027a5780634cb3ce05146102a357806383623f72146102ce5780639b284ae2146102f7576101f0565b806302bd928a146101f55780631d5f1bc71461021e5780632dc21f9c14610247578063439766ce14610263576101f0565b366101f057600060405180604001604052803373ffffffffffffffffffffffffffffffffffffffff168152602001348152509050600281908060018154018082558091505060019003906000526020600020906002020160009091909190915060008201518160000160006101000a81548173ffffffffffffffffffffffffffffffffffffffff021916908373ffffffffffffffffffffffffffffffffffffffff1602179055506020820151816001015550507f23bac35767dec08bf219a302474bbc6687dfaaf3776a62d45bb7811de040e26d33346040516101e6929190612349565b60405180910390a1005b600080fd5b34801561020157600080fd5b5061021c600480360381019061021791906123a3565b610476565b005b34801561022a57600080fd5b5061024560048036038101906102409190612406565b61055e565b005b610261600480360381019061025c91906123a3565b6106cf565b005b34801561026f57600080fd5b50610278610981565b005b34801561028657600080fd5b506102a1600480360381019061029c9190612406565b610a2b565b005b3480156102af57600080fd5b506102b8610cd3565b6040516102c59190612433565b60405180910390f35b3480156102da57600080fd5b506102f560048036038101906102f091906123a3565b610cdd565b005b34801561030357600080fd5b5061031e6004803603810190610319919061244e565b610dbd565b005b61033a6004803603810190610335919061248e565b611272565b005b34801561034857600080fd5b50610363600480360381019061035e9190612406565b6115f2565b005b34801561037157600080fd5b5061038c600480360381019061038791906123a3565b61189a565b005b34801561039a57600080fd5b506103a3611a98565b005b3480156103b157600080fd5b506103ba611b43565b6040516103c79190612433565b60405180910390f35b3480156103dc57600080fd5b506103f760048036038101906103f2919061248e565b611b4d565b005b34801561040557600080fd5b50610420600480360381019061041b91906124fa565b611e1d565b005b34801561042e57600080fd5b50610437611ebd565b6040516104449190612555565b60405180910390f35b34801561045957600080fd5b50610474600480360381019061046f91906124fa565b611ed3565b005b60008054906101000a900473ffffffffffffffffffffffffffffffffffffffff1673ffffffffffffffffffffffffffffffffffffffff163373ffffffffffffffffffffffffffffffffffffffff1614610504576040517f08c379a00000000000000000000000000000000000000000000000000000000081526004016104fb906125cd565b60405180910390fd5b60018060008373ffffffffffffffffffffffffffffffffffffffff1673ffffffffffffffffffffffffffffffffffffffff16815260200190815260200160002060006101000a81548160ff02191690831515021790555050565b600060149054906101000a900460ff166105ad576040517f08c379a00000000000000000000000000000000000000000000000000000000081526004016105a49061265f565b60405180910390fd5b600160003373ffffffffffffffffffffffffffffffffffffffff1673ffffffffffffffffffffffffffffffffffffffff16815260200190815260200160002060009054906101000a900460ff16610639576040517f08c379a0000000000000000000000000000000000000000000000000000000008152600401610630906126cb565b60405180910390fd5b6009600082815260200190815260200160002060000160009054906101000a900460ff161561069d576040517f08c379a00000000000000000000000000000000000000000000000000000000081526004016106949061275d565b60405180910390fd5b60016009600083815260200190815260200160002060000160006101000a81548160ff02191690831515021790555050565b600060149054906101000a900460ff1661071e576040517f08c379a00000000000000000000000000000000000000000000000000000000081526004016107159061265f565b60405180910390fd5b600160003373ffffffffffffffffffffffffffffffffffffffff1673ffffffffffffffffffffffffffffffffffffffff16815260200190815260200160002060009054906101000a900460ff166107aa576040517f08c379a00000000000000000000000000000000000000000000000000000000081526004016107a1906126cb565b60405180910390fd5b600160028111156107be576107bd61277d565b5b600660008373ffffffffffffffffffffffffffffffffffffffff1673ffffffffffffffffffffffffffffffffffffffff16815260200190815260200160002060000160009054906101000a900460ff1660028111156108205761081f61277d565b5b14610860576040517f08c379a0000000000000000000000000000000000000000000000000000000008152600401610857906127f8565b60405180910390fd5b60035434146108a4576040517f08c379a000000000000000000000000000000000000000000000000000000000815260040161089b90612864565b60405180910390fd5b6002600660008373ffffffffffffffffffffffffffffffffffffffff1673ffffffffffffffffffffffffffffffffffffffff16815260200190815260200160002060000160006101000a81548160ff0219169083600281111561090a5761090961277d565b5b0217905550610917611f73565b600660008373ffffffffffffffffffffffffffffffffffffffff1673ffffffffffffffffffffffffffffffffffffffff1681526020019081526020016000206001018190555060056000815480929190610970906128b3565b919050555061097e81611f8f565b50565b60008054906101000a900473ffffffffffffffffffffffffffffffffffffffff1673ffffffffffffffffffffffffffffffffffffffff163373ffffffffffffffffffffffffffffffffffffffff1614610a0f576040517f08c379a0000000000000000000000000000000000000000000000000000000008152600401610a06906125cd565b60405180910390fd5b60008060146101000a81548160ff021916908315150217905550565b600060149054906101000a900460ff16610a7a576040517f08c379a0000000000000000000000000000000000000000000000000000000008152600401610a719061265f565b60405180910390fd5b600160003373ffffffffffffffffffffffffffffffffffffffff1673ffffffffffffffffffffffffffffffffffffffff16815260200190815260200160002060009054906101000a900460ff16610b06576040517f08c379a0000000000000000000000000000000000000000000000000000000008152600401610afd906126cb565b60405180910390fd5b60006009600083815260200190815260200160002090508060000160009054906101000a900460ff16610b6e576040517f08c379a0000000000000000000000000000000000000000000000000000000008152600401610b659061296d565b60405180910390fd5b60005b8160020180549050811015610cce576000826002018281548110610b9857610b9761298d565b5b9060005260206000200160009054906101000a900473ffffffffffffffffffffffffffffffffffffffff16905060008360010160008373ffffffffffffffffffffffffffffffffffffffff1673ffffffffffffffffffffffffffffffffffffffff168152602001908152602001600020905060016004811115610c1e57610c1d61277d565b5b8160000160009054906101000a900460ff166004811115610c4257610c4161277d565b5b14610c82576040517f08c379a0000000000000000000000000000000000000000000000000000000008152600401610c7990612a2e565b60405180910390fd5b60028160000160006101000a81548160ff02191690836004811115610caa57610ca961277d565b5b0217905550610cb9858361202c565b50508080610cc6906128b3565b915050610b71565b505050565b6000600354905090565b60008054906101000a900473ffffffffffffffffffffffffffffffffffffffff1673ffffffffffffffffffffffffffffffffffffffff163373ffffffffffffffffffffffffffffffffffffffff1614610d6b576040517f08c379a0000000000000000000000000000000000000000000000000000000008152600401610d62906125cd565b60405180910390fd5b600160008273ffffffffffffffffffffffffffffffffffffffff1673ffffffffffffffffffffffffffffffffffffffff16815260200190815260200160002060006101000a81549060ff021916905550565b600060149054906101000a900460ff16610e0c576040517f08c379a0000000000000000000000000000000000000000000000000000000008152600401610e039061265f565b60405180910390fd5b81600280811115610e2057610e1f61277d565b5b600660008373ffffffffffffffffffffffffffffffffffffffff1673ffffffffffffffffffffffffffffffffffffffff16815260200190815260200160002060000160009054906101000a900460ff166002811115610e8257610e8161277d565b5b14610ec2576040517f08c379a0000000000000000000000000000000000000000000000000000000008152600401610eb990612ac0565b60405180910390fd5b600160003373ffffffffffffffffffffffffffffffffffffffff1673ffffffffffffffffffffffffffffffffffffffff16815260200190815260200160002060009054906101000a900460ff16610f4e576040517f08c379a0000000000000000000000000000000000000000000000000000000008152600401610f45906126cb565b60405180910390fd5b60006002811115610f6257610f6161277d565b5b600660008473ffffffffffffffffffffffffffffffffffffffff1673ffffffffffffffffffffffffffffffffffffffff16815260200190815260200160002060000160009054906101000a900460ff166002811115610fc457610fc361277d565b5b14611004576040517f08c379a0000000000000000000000000000000000000000000000000000000008152600401610ffb90612b52565b60405180910390fd5b60001515600660008473ffffffffffffffffffffffffffffffffffffffff1673ffffffffffffffffffffffffffffffffffffffff16815260200190815260200160002060030160008573ffffffffffffffffffffffffffffffffffffffff1673ffffffffffffffffffffffffffffffffffffffff16815260200190815260200160002060009054906101000a900460ff161515146110d7576040517f08c379a00000000000000000000000000000000000000000000000000000000081526004016110ce90612c0a565b60405180910390fd5b6001600660008473ffffffffffffffffffffffffffffffffffffffff1673ffffffffffffffffffffffffffffffffffffffff16815260200190815260200160002060030160008573ffffffffffffffffffffffffffffffffffffffff1673ffffffffffffffffffffffffffffffffffffffff16815260200190815260200160002060006101000a81548160ff021916908315150217905550600660008373ffffffffffffffffffffffffffffffffffffffff1673ffffffffffffffffffffffffffffffffffffffff168152602001908152602001600020600201600081819054906101000a900461ffff16809291906111cf90612c38565b91906101000a81548161ffff021916908361ffff160217905550506111f3826120e6565b1561126d576001600660008473ffffffffffffffffffffffffffffffffffffffff1673ffffffffffffffffffffffffffffffffffffffff16815260200190815260200160002060000160006101000a81548160ff0219169083600281111561125e5761125d61277d565b5b021790555061126c82611f8f565b5b505050565b600060149054906101000a900460ff166112c1576040517f08c379a00000000000000000000000000000000000000000000000000000000081526004016112b89061265f565b60405180910390fd5b600160003373ffffffffffffffffffffffffffffffffffffffff1673ffffffffffffffffffffffffffffffffffffffff16815260200190815260200160002060009054906101000a900460ff1661134d576040517f08c379a0000000000000000000000000000000000000000000000000000000008152600401611344906126cb565b60405180910390fd5b600754341015801561136157506008543411155b6113a0576040517f08c379a000000000000000000000000000000000000000000000000000000000815260040161139790612cae565b60405180910390fd5b60006009600083815260200190815260200160002090508060000160009054906101000a900460ff16611408576040517f08c379a00000000000000000000000000000000000000000000000000000000081526004016113ff9061296d565b60405180910390fd5b6000600481111561141c5761141b61277d565b5b8160010160008573ffffffffffffffffffffffffffffffffffffffff1673ffffffffffffffffffffffffffffffffffffffff16815260200190815260200160002060000160009054906101000a900460ff1660048111156114805761147f61277d565b5b146114c0576040517f08c379a00000000000000000000000000000000000000000000000000000000081526004016114b790612d40565b60405180910390fd5b6040518060600160405280600160048111156114df576114de61277d565b5b81526020016114ec61216b565b815260200160008152508160010160008573ffffffffffffffffffffffffffffffffffffffff1673ffffffffffffffffffffffffffffffffffffffff16815260200190815260200160002060008201518160000160006101000a81548160ff021916908360048111156115625761156161277d565b5b0217905550602082015181600101556040820151816002015590505080600201839080600181540180825580915050600190039060005260206000200160009091909190916101000a81548173ffffffffffffffffffffffffffffffffffffffff021916908373ffffffffffffffffffffffffffffffffffffffff1602179055506115ed828461202c565b505050565b600060149054906101000a900460ff16611641576040517f08c379a00000000000000000000000000000000000000000000000000000000081526004016116389061265f565b60405180910390fd5b600160003373ffffffffffffffffffffffffffffffffffffffff1673ffffffffffffffffffffffffffffffffffffffff16815260200190815260200160002060009054906101000a900460ff166116cd576040517f08c379a00000000000000000000000000000000000000000000000000000000081526004016116c4906126cb565b60405180910390fd5b60006009600083815260200190815260200160002090508060000160009054906101000a900460ff16611735576040517f08c379a000000000000000000000000000000000000000000000000000000000815260040161172c9061296d565b60405180910390fd5b60005b816002018054905081101561189557600082600201828154811061175f5761175e61298d565b5b9060005260206000200160009054906101000a900473ffffffffffffffffffffffffffffffffffffffff16905060008360010160008373ffffffffffffffffffffffffffffffffffffffff1673ffffffffffffffffffffffffffffffffffffffff1681526020019081526020016000209050600160048111156117e5576117e461277d565b5b8160000160009054906101000a900460ff1660048111156118095761180861277d565b5b14611849576040517f08c379a000000000000000000000000000000000000000000000000000000000815260040161184090612df8565b60405180910390fd5b60038160000160006101000a81548160ff021916908360048111156118715761187061277d565b5b0217905550611880858361202c565b5050808061188d906128b3565b915050611738565b505050565b600160003373ffffffffffffffffffffffffffffffffffffffff1673ffffffffffffffffffffffffffffffffffffffff16815260200190815260200160002060009054906101000a900460ff16611926576040517f08c379a000000000000000000000000000000000000000000000000000000000815260040161191d906126cb565b60405180910390fd5b60006005541461196b576040517f08c379a000000000000000000000000000000000000000000000000000000000815260040161196290612eb0565b60405180910390fd5b6000600281111561197f5761197e61277d565b5b600660008373ffffffffffffffffffffffffffffffffffffffff1673ffffffffffffffffffffffffffffffffffffffff16815260200190815260200160002060000160009054906101000a900460ff1660028111156119e1576119e061277d565b5b14611a21576040517f08c379a0000000000000000000000000000000000000000000000000000000008152600401611a1890612f42565b60405180910390fd5b6001600660008373ffffffffffffffffffffffffffffffffffffffff1673ffffffffffffffffffffffffffffffffffffffff16815260200190815260200160002060000160006101000a81548160ff02191690836002811115611a8757611a8661277d565b5b0217905550611a9581611f8f565b50565b60008054906101000a900473ffffffffffffffffffffffffffffffffffffffff1673ffffffffffffffffffffffffffffffffffffffff163373ffffffffffffffffffffffffffffffffffffffff1614611b26576040517f08c379a0000000000000000000000000000000000000000000000000000000008152600401611b1d906125cd565b60405180910390fd5b6001600060146101000a81548160ff021916908315150217905550565b6000600454905090565b600060149054906101000a900460ff16611b9c576040517f08c379a0000000000000000000000000000000000000000000000000000000008152600401611b939061265f565b60405180910390fd5b600160003373ffffffffffffffffffffffffffffffffffffffff1673ffffffffffffffffffffffffffffffffffffffff16815260200190815260200160002060009054906101000a900460ff16611c28576040517f08c379a0000000000000000000000000000000000000000000000000000000008152600401611c1f906126cb565b60405180910390fd5b60006009600083815260200190815260200160002090508060000160009054906101000a900460ff16611c90576040517f08c379a0000000000000000000000000000000000000000000000000000000008152600401611c879061296d565b60405180910390fd5b60008160010160008573ffffffffffffffffffffffffffffffffffffffff1673ffffffffffffffffffffffffffffffffffffffff168152602001908152602001600020905060036004811115611ce957611ce861277d565b5b8160000160009054906101000a900460ff166004811115611d0d57611d0c61277d565b5b14611d4d576040517f08c379a0000000000000000000000000000000000000000000000000000000008152600401611d4490612ffa565b60405180910390fd5b6000816002015414611d94576040517f08c379a0000000000000000000000000000000000000000000000000000000008152600401611d8b90613066565b60405180910390fd5b600260038260010154611da79190613086565b611db1919061310f565b816002018190555060048160000160006101000a81548160ff02191690836004811115611de157611de061277d565b5b0217905550611e0d8482600201546040518060600160405280602981526020016133b160299139612187565b611e17838561202c565b50505050565b60008054906101000a900473ffffffffffffffffffffffffffffffffffffffff1673ffffffffffffffffffffffffffffffffffffffff163373ffffffffffffffffffffffffffffffffffffffff1614611eab576040517f08c379a0000000000000000000000000000000000000000000000000000000008152600401611ea2906125cd565b60405180910390fd5b81600381905550806004819055505050565b60008060149054906101000a900460ff16905090565b60008054906101000a900473ffffffffffffffffffffffffffffffffffffffff1673ffffffffffffffffffffffffffffffffffffffff163373ffffffffffffffffffffffffffffffffffffffff1614611f61576040517f08c379a0000000000000000000000000000000000000000000000000000000008152600401611f58906125cd565b60405180910390fd5b81600781905550806008819055505050565b60006003543410611f88576003549050611f8c565b3490505b90565b7f9c057abe77e7843cc934232caae9e813533b45693ca557a04758f6e22be06ce581600660008473ffffffffffffffffffffffffffffffffffffffff1673ffffffffffffffffffffffffffffffffffffffff16815260200190815260200160002060000160009054906101000a900460ff1660028111156120135761201261277d565b5b604051612021929190612349565b60405180910390a150565b60006009600084815260200190815260200160002090507fb174a3ddb916dfcbbd0b6255747b8190f3e47f108ef09656b88e603868788d4582848360010160008673ffffffffffffffffffffffffffffffffffffffff1673ffffffffffffffffffffffffffffffffffffffff16815260200190815260200160002060000160009054906101000a900460ff1660048111156120ca576120c961277d565b5b6040516120d99392919061314f565b60405180910390a1505050565b600060045460055410156120fd5760019050612166565b6005546002600660008573ffffffffffffffffffffffffffffffffffffffff1673ffffffffffffffffffffffffffffffffffffffff16815260200190815260200160002060020160009054906101000a900461ffff1661215d9190613186565b61ffff16101590505b919050565b60006008543410612180576008549050612184565b3490505b90565b600073ffffffffffffffffffffffffffffffffffffffff168373ffffffffffffffffffffffffffffffffffffffff16036121f6576040517f08c379a00000000000000000000000000000000000000000000000000000000081526004016121ed9061320e565b60405180910390fd5b60008211612239576040517f08c379a0000000000000000000000000000000000000000000000000000000008152600401612230906132a0565b60405180910390fd5b60008373ffffffffffffffffffffffffffffffffffffffff168360405161225f906132f1565b60006040518083038185875af1925050503d806000811461229c576040519150601f19603f3d011682016040523d82523d6000602084013e6122a1565b606091505b505090508082906122e8576040517f08c379a00000000000000000000000000000000000000000000000000000000081526004016122df919061338e565b60405180910390fd5b5050505050565b600073ffffffffffffffffffffffffffffffffffffffff82169050919050565b600061231a826122ef565b9050919050565b61232a8161230f565b82525050565b6000819050919050565b61234381612330565b82525050565b600060408201905061235e6000830185612321565b61236b602083018461233a565b9392505050565b600080fd5b6123808161230f565b811461238b57600080fd5b50565b60008135905061239d81612377565b92915050565b6000602082840312156123b9576123b8612372565b5b60006123c78482850161238e565b91505092915050565b6000819050919050565b6123e3816123d0565b81146123ee57600080fd5b50565b600081359050612400816123da565b92915050565b60006020828403121561241c5761241b612372565b5b600061242a848285016123f1565b91505092915050565b6000602082019050612448600083018461233a565b92915050565b6000806040838503121561246557612464612372565b5b60006124738582860161238e565b92505060206124848582860161238e565b9150509250929050565b600080604083850312156124a5576124a4612372565b5b60006124b38582860161238e565b92505060206124c4858286016123f1565b9150509250929050565b6124d781612330565b81146124e257600080fd5b50565b6000813590506124f4816124ce565b92915050565b6000806040838503121561251157612510612372565b5b600061251f858286016124e5565b9250506020612530858286016124e5565b9150509250929050565b60008115159050919050565b61254f8161253a565b82525050565b600060208201905061256a6000830184612546565b92915050565b600082825260208201905092915050565b7f43616c6c6572206973206e6f7420636f6e7472616374206f776e657200000000600082015250565b60006125b7601c83612570565b91506125c282612581565b602082019050919050565b600060208201905081810360008301526125e6816125aa565b9050919050565b7f436f6e74726163742069732063757272656e746c79206e6f74206f706572617460008201527f696f6e616c000000000000000000000000000000000000000000000000000000602082015250565b6000612649602583612570565b9150612654826125ed565b604082019050919050565b600060208201905081810360008301526126788161263c565b9050919050565b7f43616c6c6572206973206e6f7420617574686f72697a65640000000000000000600082015250565b60006126b5601883612570565b91506126c08261267f565b602082019050919050565b600060208201905081810360008301526126e4816126a8565b9050919050565b7f416e20696e7375726564206f626a6563742063616e6e6f74206265207265676960008201527f7374657265642074776963650000000000000000000000000000000000000000602082015250565b6000612747602c83612570565b9150612752826126eb565b604082019050919050565b600060208201905081810360008301526127768161273a565b9050919050565b7f4e487b7100000000000000000000000000000000000000000000000000000000600052602160045260246000fd5b7f496e7375726572206973206e6f74207965742072656769737465726564000000600082015250565b60006127e2601d83612570565b91506127ed826127ac565b602082019050919050565b60006020820190508181036000830152612811816127d5565b9050919050565b7f496e76616c696420696e73757265722773206665652070616964000000000000600082015250565b600061284e601a83612570565b915061285982612818565b602082019050919050565b6000602082019050818103600083015261287d81612841565b9050919050565b7f4e487b7100000000000000000000000000000000000000000000000000000000600052601160045260246000fd5b60006128be82612330565b91507fffffffffffffffffffffffffffffffffffffffffffffffffffffffffffffffff82036128f0576128ef612884565b5b600182019050919050565b7f54686520696e7375726564206f626a656374206973206e6f742072656769737460008201527f6572656400000000000000000000000000000000000000000000000000000000602082015250565b6000612957602483612570565b9150612962826128fb565b604082019050919050565b600060208201905081810360008301526129868161294a565b9050919050565b7f4e487b7100000000000000000000000000000000000000000000000000000000600052603260045260246000fd5b7f496e737572616e63652063616e6e6f7420626520636c6f736564206f7220697460008201527f20686173206265656e20616c726561647920636c6f7365640000000000000000602082015250565b6000612a18603883612570565b9150612a23826129bc565b604082019050919050565b60006020820190508181036000830152612a4781612a0b565b9050919050565b7f43616c6c6572206973206e6f7420612066756c6c79207175616c69666965642060008201527f696e737572657200000000000000000000000000000000000000000000000000602082015250565b6000612aaa602783612570565b9150612ab582612a4e565b604082019050919050565b60006020820190508181036000830152612ad981612a9d565b9050919050565b7f496e737572657220686173206265656e20616c7265616479207265676973746560008201527f7265640000000000000000000000000000000000000000000000000000000000602082015250565b6000612b3c602383612570565b9150612b4782612ae0565b604082019050919050565b60006020820190508181036000830152612b6b81612b2f565b9050919050565b7f496e737572657220686173206265656e20616c726561647920617070726f766560008201527f6420666f7220726567697374726174696f6e20627920746869732063616c6c6560208201527f7200000000000000000000000000000000000000000000000000000000000000604082015250565b6000612bf4604183612570565b9150612bff82612b72565b606082019050919050565b60006020820190508181036000830152612c2381612be7565b9050919050565b600061ffff82169050919050565b6000612c4382612c2a565b915061ffff8203612c5757612c56612884565b5b600182019050919050565b7f496e76616c696420696e737572616e6365207072696365207061696400000000600082015250565b6000612c98601c83612570565b9150612ca382612c62565b602082019050919050565b60006020820190508181036000830152612cc781612c8b565b9050919050565b7f5468652073616d6520696e737572616e636520706f6c6963792063616e6e6f7460008201527f20626520626f7567687420747769636500000000000000000000000000000000602082015250565b6000612d2a603083612570565b9150612d3582612cce565b604082019050919050565b60006020820190508181036000830152612d5981612d1d565b9050919050565b7f4372656469742072657472696576616c2063616e6e6f7420626520617070726f60008201527f766564206f7220697420686173206265656e20616c726561647920617070726f60208201527f7665640000000000000000000000000000000000000000000000000000000000604082015250565b6000612de2604383612570565b9150612ded82612d60565b606082019050919050565b60006020820190508181036000830152612e1181612dd5565b9050919050565b7f5468652066697273742066756c6c792d7175616c696669656420696e7375726560008201527f722063616e2062652072656769737465726564206f6e6c7920617420636f6e7460208201527f7261637420736574757020706861736500000000000000000000000000000000604082015250565b6000612e9a605083612570565b9150612ea582612e18565b606082019050919050565b60006020820190508181036000830152612ec981612e8d565b9050919050565b7f496e73757265722063616e6e6f7420626520726567697374657265642074776960008201527f6365000000000000000000000000000000000000000000000000000000000000602082015250565b6000612f2c602283612570565b9150612f3782612ed0565b604082019050919050565b60006020820190508181036000830152612f5b81612f1f565b9050919050565b7f4372656469742072657472696576616c206973206e6f7420617070726f76656460008201527f206f7220697420686173206265656e20616c726561647920776974686472617760208201527f6e00000000000000000000000000000000000000000000000000000000000000604082015250565b6000612fe4604183612570565b9150612fef82612f62565b606082019050919050565b6000602082019050818103600083015261301381612fd7565b9050919050565b7f4372656469742063616e6e6f742062652077697468647261776e207477696365600082015250565b6000613050602083612570565b915061305b8261301a565b602082019050919050565b6000602082019050818103600083015261307f81613043565b9050919050565b600061309182612330565b915061309c83612330565b9250817fffffffffffffffffffffffffffffffffffffffffffffffffffffffffffffffff04831182151516156130d5576130d4612884565b5b828202905092915050565b7f4e487b7100000000000000000000000000000000000000000000000000000000600052601260045260246000fd5b600061311a82612330565b915061312583612330565b925082613135576131346130e0565b5b828204905092915050565b613149816123d0565b82525050565b60006060820190506131646000830186612321565b6131716020830185613140565b61317e604083018461233a565b949350505050565b600061319182612c2a565b915061319c83612c2a565b92508161ffff04831182151516156131b7576131b6612884565b5b828202905092915050565b7f546865207061796565206973206e6f7420612076616c69642061646472657373600082015250565b60006131f8602083612570565b9150613203826131c2565b602082019050919050565b60006020820190508181036000830152613227816131eb565b9050919050565b7f4f6e6c7920706f7369746976652063726564697420616d6f756e742063616e2060008201527f62652077697468647261776e0000000000000000000000000000000000000000602082015250565b600061328a602c83612570565b91506132958261322e565b604082019050919050565b600060208201905081810360008301526132b98161327d565b9050919050565b600081905092915050565b50565b60006132db6000836132c0565b91506132e6826132cb565b600082019050919050565b60006132fc826132ce565b9150819050919050565b600081519050919050565b60005b8381101561332f578082015181840152602081019050613314565b8381111561333e576000848401525b50505050565b6000601f19601f8301169050919050565b600061336082613306565b61336a8185612570565b935061337a818560208601613311565b61338381613344565b840191505092915050565b600060208201905081810360008301526133a88184613355565b90509291505056fe496e737572616e636520706f6c696379206372656469742077697468647261776e206661696c65642ea2646970667358221220c68faf23b0c7191e2bf9ba1d8b47157c236f87517bebdf3cfe84d63fb5da78ce64736f6c634300080d0033",
  "immutableReferences": {},
  "source": "// SPDX-License-Identifier: MIT\npragma solidity ^0.8.5;\n\nimport \"./shared/OwnableContract.sol\";\n\nimport \"./data/DataOperationalContract.sol\";\nimport \"./data/DataContract.sol\";\nimport \"./data/DataInsurerController.sol\";\nimport \"./data/DataInsuranceController.sol\";\n\nimport \"./shared/BaseSuretyData.sol\";\n\ncontract FlightSuretyData is OwnableContract, DataOperationalContract, DataContract, DataInsurerController, DataInsuranceController, BaseSuretyData {\n\n    constructor() OwnableContract(){\n    }\n\n}\n\n",
  "sourcePath": "/Volumes/Others/blockchain/udacity/flight-udacity-dapp/contracts/FlightSuretyData.sol",
  "compiler": {
    "name": "solc",
    "version": "0.8.13+commit.abaa5c0e.Emscripten.clang"
  },
  "schemaVersion": "3.4.7",
  "updatedAt": "2022-06-11T12:15:55.523Z",
  "devdoc": {
    "kind": "dev",
    "methods": {},
    "version": 1
  },
  "userdoc": {
    "events": {
      "FundingReceived(address,uint256)": {
        "notice": "API"
      },
      "InsurancePolicyStateChanged(address,bytes32,uint256)": {
        "notice": "API"
      },
      "InsurerStateChanged(address,uint256)": {
        "notice": "API"
      }
    },
    "kind": "user",
    "methods": {
      "isContractOperational()": {
        "notice": "API"
      }
    },
    "version": 1
  }
}