{
  "contractName": "FlightSuretyApp",
  "abi": [
    {
      "inputs": [
        {
          "internalType": "address",
          "name": "flightSuretyDataAddress",
          "type": "address"
        }
      ],
      "stateMutability": "nonpayable",
      "type": "constructor"
    },
    {
      "anonymous": false,
      "inputs": [
        {
          "indexed": false,
          "internalType": "uint8",
          "name": "index",
          "type": "uint8"
        },
        {
          "indexed": false,
          "internalType": "address",
          "name": "airlineAddress",
          "type": "address"
        },
        {
          "indexed": false,
          "internalType": "string",
          "name": "flightNumber",
          "type": "string"
        },
        {
          "indexed": false,
          "internalType": "uint256",
          "name": "departureTime",
          "type": "uint256"
        }
      ],
      "name": "FlightStatusInfoRequested",
      "type": "event"
    },
    {
      "anonymous": false,
      "inputs": [
        {
          "indexed": false,
          "internalType": "address",
          "name": "airlineAddress",
          "type": "address"
        },
        {
          "indexed": false,
          "internalType": "string",
          "name": "flightNumber",
          "type": "string"
        },
        {
          "indexed": false,
          "internalType": "uint256",
          "name": "departureTime",
          "type": "uint256"
        },
        {
          "indexed": false,
          "internalType": "uint8",
          "name": "flightStatus",
          "type": "uint8"
        }
      ],
      "name": "FlightStatusInfoSubmitted",
      "type": "event"
    },
    {
      "anonymous": false,
      "inputs": [
        {
          "indexed": false,
          "internalType": "address",
          "name": "airlineAddress",
          "type": "address"
        },
        {
          "indexed": false,
          "internalType": "string",
          "name": "flightNumber",
          "type": "string"
        },
        {
          "indexed": false,
          "internalType": "uint256",
          "name": "departureTime",
          "type": "uint256"
        },
        {
          "indexed": false,
          "internalType": "uint8",
          "name": "flightStatus",
          "type": "uint8"
        }
      ],
      "name": "FlightStatusInfoUpdated",
      "type": "event"
    },
    {
      "anonymous": false,
      "inputs": [
        {
          "indexed": false,
          "internalType": "address",
          "name": "oracleAddress",
          "type": "address"
        }
      ],
      "name": "OracleRegistered",
      "type": "event"
    },
    {
      "inputs": [],
      "name": "BLOCKS_USED_FOR_RANDOM_NUMBER_GENERATION",
      "outputs": [
        {
          "internalType": "uint8",
          "name": "",
          "type": "uint8"
        }
      ],
      "stateMutability": "view",
      "type": "function"
    },
    {
      "inputs": [],
      "name": "ORACLE_RANDOM_INDEX_CEIL",
      "outputs": [
        {
          "internalType": "uint8",
          "name": "",
          "type": "uint8"
        }
      ],
      "stateMutability": "view",
      "type": "function"
    },
    {
      "inputs": [],
      "name": "ORACLE_REGISTRATION_FEE",
      "outputs": [
        {
          "internalType": "uint256",
          "name": "",
          "type": "uint256"
        }
      ],
      "stateMutability": "view",
      "type": "function"
    },
    {
      "inputs": [],
      "name": "ORACLE_RESPONSES_REQUIRED_FOR_VALIDATION",
      "outputs": [
        {
          "internalType": "uint256",
          "name": "",
          "type": "uint256"
        }
      ],
      "stateMutability": "view",
      "type": "function"
    },
    {
      "inputs": [
        {
          "internalType": "address",
          "name": "airlineAddress",
          "type": "address"
        },
        {
          "internalType": "string",
          "name": "flightNumber",
          "type": "string"
        },
        {
          "internalType": "uint256",
          "name": "departureTime",
          "type": "uint256"
        }
      ],
      "name": "buyFlightInsurance",
      "outputs": [],
      "stateMutability": "payable",
      "type": "function"
    },
    {
      "inputs": [],
      "name": "getMyIndexes",
      "outputs": [
        {
          "internalType": "uint8[3]",
          "name": "",
          "type": "uint8[3]"
        }
      ],
      "stateMutability": "view",
      "type": "function"
    },
    {
      "inputs": [],
      "name": "isContractOperational",
      "outputs": [
        {
          "internalType": "bool",
          "name": "",
          "type": "bool"
        }
      ],
      "stateMutability": "view",
      "type": "function"
    },
    {
      "inputs": [],
      "name": "payAirlineInsurerFee",
      "outputs": [],
      "stateMutability": "payable",
      "type": "function"
    },
    {
      "inputs": [
        {
          "internalType": "address",
          "name": "airlineAddress",
          "type": "address"
        },
        {
          "internalType": "string",
          "name": "airlineName",
          "type": "string"
        }
      ],
      "name": "registerAirline",
      "outputs": [],
      "stateMutability": "nonpayable",
      "type": "function"
    },
    {
      "inputs": [
        {
          "internalType": "string",
          "name": "flightNumber",
          "type": "string"
        },
        {
          "internalType": "uint256",
          "name": "departureTime",
          "type": "uint256"
        },
        {
          "internalType": "string",
          "name": "origin",
          "type": "string"
        },
        {
          "internalType": "string",
          "name": "destination",
          "type": "string"
        }
      ],
      "name": "registerFlight",
      "outputs": [],
      "stateMutability": "nonpayable",
      "type": "function"
    },
    {
      "inputs": [],
      "name": "registerOracle",
      "outputs": [],
      "stateMutability": "payable",
      "type": "function"
    },
    {
      "inputs": [
        {
          "internalType": "address",
          "name": "airlineAddress",
          "type": "address"
        },
        {
          "internalType": "string",
          "name": "airlineName",
          "type": "string"
        }
      ],
      "name": "registerTheFirstAirline",
      "outputs": [],
      "stateMutability": "nonpayable",
      "type": "function"
    },
    {
      "inputs": [
        {
          "internalType": "address",
          "name": "airlineAddress",
          "type": "address"
        },
        {
          "internalType": "string",
          "name": "flightNumber",
          "type": "string"
        },
        {
          "internalType": "uint256",
          "name": "departureTime",
          "type": "uint256"
        }
      ],
      "name": "requestFlightStatusInfo",
      "outputs": [],
      "stateMutability": "nonpayable",
      "type": "function"
    },
    {
      "inputs": [
        {
          "internalType": "uint8",
          "name": "index",
          "type": "uint8"
        },
        {
          "internalType": "address",
          "name": "airlineAddress",
          "type": "address"
        },
        {
          "internalType": "string",
          "name": "flightNumber",
          "type": "string"
        },
        {
          "internalType": "uint256",
          "name": "departureTime",
          "type": "uint256"
        },
        {
          "internalType": "uint8",
          "name": "statusCode",
          "type": "uint8"
        }
      ],
      "name": "submitFlightStatusInfo",
      "outputs": [],
      "stateMutability": "nonpayable",
      "type": "function"
    },
    {
      "inputs": [],
      "name": "unregisterOracle",
      "outputs": [],
      "stateMutability": "nonpayable",
      "type": "function"
    },
    {
      "inputs": [
        {
          "internalType": "address",
          "name": "airlineAddress",
          "type": "address"
        },
        {
          "internalType": "string",
          "name": "flightNumber",
          "type": "string"
        },
        {
          "internalType": "uint256",
          "name": "departureTime",
          "type": "uint256"
        }
      ],
      "name": "withdrawFlightInsuranceCredit",
      "outputs": [],
      "stateMutability": "nonpayable",
      "type": "function"
    },
    {
      "stateMutability": "payable",
      "type": "receive"
    }
  ],
  "bytecode": "0x60806040526000600460006101000a81548160ff021916908360ff1602179055503480156200002d57600080fd5b5060405162003fb938038062003fb9833981810160405281019062000053919062000147565b8033600160006101000a81548173ffffffffffffffffffffffffffffffffffffffff021916908373ffffffffffffffffffffffffffffffffffffffff160217905550806000806101000a81548173ffffffffffffffffffffffffffffffffffffffff021916908373ffffffffffffffffffffffffffffffffffffffff160217905550505062000179565b600080fd5b600073ffffffffffffffffffffffffffffffffffffffff82169050919050565b60006200010f82620000e2565b9050919050565b620001218162000102565b81146200012d57600080fd5b50565b600081519050620001418162000116565b92915050565b60006020828403121562000160576200015f620000dd565b5b6000620001708482850162000130565b91505092915050565b613e3080620001896000396000f3fe6080604052600436106100f75760003560e01c80638a06fcdf1161008a578063dd82ba6b11610059578063dd82ba6b146102f8578063dde2369514610323578063e75808da1461034e578063ee38a749146103795761015e565b80638a06fcdf14610266578063b6d4a83a1461028f578063be7a8cd4146102b8578063cbc03b47146102cf5761015e565b80635945bc4d116100c65780635945bc4d146101be5780635f1cc0e6146101e75780636dce8d9e14610212578063877a2b271461023b5761015e565b8063110169c3146101635780631b8581db1461016d578063339d25901461019857806343268d7d146101a25761015e565b3661015e5761015c60008054906101000a900473ffffffffffffffffffffffffffffffffffffffff16346040518060400160405280601e81526020017f43616e6e6f742066756e642073757265747944617461436f6e747261637400008152506103a2565b005b600080fd5b61016b61050a565b005b34801561017957600080fd5b50610182610688565b60405161018f91906127e1565b60405180910390f35b6101a061068d565b005b6101bc60048036038101906101b791906129ea565b610881565b005b3480156101ca57600080fd5b506101e560048036038101906101e091906129ea565b610a04565b005b3480156101f357600080fd5b506101fc610b7d565b6040516102099190612b04565b60405180910390f35b34801561021e57600080fd5b5061023960048036038101906102349190612bab565b610cbd565b005b34801561024757600080fd5b50610250611244565b60405161025d9190612c54565b60405180910390f35b34801561027257600080fd5b5061028d60048036038101906102889190612c6f565b611249565b005b34801561029b57600080fd5b506102b660048036038101906102b19190612ce3565b61155e565b005b3480156102c457600080fd5b506102cd6117bf565b005b3480156102db57600080fd5b506102f660048036038101906102f19190612d3f565b6119af565b005b34801561030457600080fd5b5061030d611d23565b60405161031a9190612c54565b60405180910390f35b34801561032f57600080fd5b50610338611d2f565b60405161034591906127e1565b60405180910390f35b34801561035a57600080fd5b50610363611d34565b6040516103709190612e15565b60405180910390f35b34801561038557600080fd5b506103a0600480360381019061039b9190612ce3565b611dcb565b005b600073ffffffffffffffffffffffffffffffffffffffff168373ffffffffffffffffffffffffffffffffffffffff1603610411576040517f08c379a000000000000000000000000000000000000000000000000000000000815260040161040890612e8d565b60405180910390fd5b60008211610454576040517f08c379a000000000000000000000000000000000000000000000000000000000815260040161044b90612f1f565b60405180910390fd5b60008373ffffffffffffffffffffffffffffffffffffffff168360405161047a90612f70565b60006040518083038185875af1925050503d80600081146104b7576040519150601f19603f3d011682016040523d82523d6000602084013e6104bc565b606091505b50509050808290610503576040517f08c379a00000000000000000000000000000000000000000000000000000000081526004016104fa9190612ffc565b60405180910390fd5b5050505050565b60008054906101000a900473ffffffffffffffffffffffffffffffffffffffff1673ffffffffffffffffffffffffffffffffffffffff1663e75808da6040518163ffffffff1660e01b8152600401602060405180830381865afa158015610575573d6000803e3d6000fd5b505050506040513d601f19601f82011682018060405250810190610599919061304a565b6105d8576040517f08c379a00000000000000000000000000000000000000000000000000000000081526004016105cf906130e9565b60405180910390fd5b6105fa336040518060600160405280602b8152602001613da1602b9139611fdc565b60008054906101000a900473ffffffffffffffffffffffffffffffffffffffff1673ffffffffffffffffffffffffffffffffffffffff16632dc21f9c34336040518363ffffffff1660e01b81526004016106549190613118565b6000604051808303818588803b15801561066d57600080fd5b505af1158015610681573d6000803e3d6000fd5b5050505050565b600581565b60008054906101000a900473ffffffffffffffffffffffffffffffffffffffff1673ffffffffffffffffffffffffffffffffffffffff1663e75808da6040518163ffffffff1660e01b8152600401602060405180830381865afa1580156106f8573d6000803e3d6000fd5b505050506040513d601f19601f8201168201806040525081019061071c919061304a565b61075b576040517f08c379a0000000000000000000000000000000000000000000000000000000008152600401610752906130e9565b60405180910390fd5b670de0b6b3a76400003410156107a6576040517f08c379a000000000000000000000000000000000000000000000000000000000815260040161079d9061317f565b60405180910390fd5b60006107b333600a612073565b9050604051806040016040528060011515815260200182815250600560003373ffffffffffffffffffffffffffffffffffffffff1673ffffffffffffffffffffffffffffffffffffffff16815260200190815260200160002060008201518160000160006101000a81548160ff02191690831515021790555060208201518160010190600361084392919061265f565b509050507fd9d9fdcc9f936c76b5aafe54fc3db5dcec0c6583c9ccc4abe91d17575c5145a5336040516108769190613118565b60405180910390a150565b60008054906101000a900473ffffffffffffffffffffffffffffffffffffffff1673ffffffffffffffffffffffffffffffffffffffff1663e75808da6040518163ffffffff1660e01b8152600401602060405180830381865afa1580156108ec573d6000803e3d6000fd5b505050506040513d601f19601f82011682018060405250810190610910919061304a565b61094f576040517f08c379a0000000000000000000000000000000000000000000000000000000008152600401610946906130e9565b60405180910390fd5b600061095c8484846122eb565b905061096781612321565b61097081612387565b60008054906101000a900473ffffffffffffffffffffffffffffffffffffffff1673ffffffffffffffffffffffffffffffffffffffff1663adf8ae7a3433846040518463ffffffff1660e01b81526004016109cc9291906131b8565b6000604051808303818588803b1580156109e557600080fd5b505af11580156109f9573d6000803e3d6000fd5b505050505050505050565b60008054906101000a900473ffffffffffffffffffffffffffffffffffffffff1673ffffffffffffffffffffffffffffffffffffffff1663e75808da6040518163ffffffff1660e01b8152600401602060405180830381865afa158015610a6f573d6000803e3d6000fd5b505050506040513d601f19601f82011682018060405250810190610a93919061304a565b610ad2576040517f08c379a0000000000000000000000000000000000000000000000000000000008152600401610ac9906130e9565b60405180910390fd5b6000610adf8484846122eb565b9050610aea81612321565b60008054906101000a900473ffffffffffffffffffffffffffffffffffffffff1673ffffffffffffffffffffffffffffffffffffffff1663d3ce210833836040518363ffffffff1660e01b8152600401610b459291906131b8565b600060405180830381600087803b158015610b5f57600080fd5b505af1158015610b73573d6000803e3d6000fd5b5050505050505050565b610b856126f9565b600560003373ffffffffffffffffffffffffffffffffffffffff1673ffffffffffffffffffffffffffffffffffffffff16815260200190815260200160002060000160009054906101000a900460ff16610c14576040517f08c379a0000000000000000000000000000000000000000000000000000000008152600401610c0b9061322d565b60405180910390fd5b600560003373ffffffffffffffffffffffffffffffffffffffff1673ffffffffffffffffffffffffffffffffffffffff168152602001908152602001600020600101600380602002604051908101604052809291908260038015610cb3576020028201916000905b82829054906101000a900460ff1660ff1681526020019060010190602082600001049283019260010382029150808411610c7c5790505b5050505050905090565b60008054906101000a900473ffffffffffffffffffffffffffffffffffffffff1673ffffffffffffffffffffffffffffffffffffffff1663e75808da6040518163ffffffff1660e01b8152600401602060405180830381865afa158015610d28573d6000803e3d6000fd5b505050506040513d601f19601f82011682018060405250810190610d4c919061304a565b610d8b576040517f08c379a0000000000000000000000000000000000000000000000000000000008152600401610d82906130e9565b60405180910390fd5b6000610ddc8686868080601f016020809104026020016040519081016040528093929190818152602001838380828437600081840152601f19601f82011690508083019250505050505050856122eb565b9050610de781612321565b610df081612387565b8660ff16600560003373ffffffffffffffffffffffffffffffffffffffff1673ffffffffffffffffffffffffffffffffffffffff168152602001908152602001600020600101600060038110610e4957610e4861324d565b5b602091828204019190069054906101000a900460ff1660ff161480610edd57508660ff16600560003373ffffffffffffffffffffffffffffffffffffffff1673ffffffffffffffffffffffffffffffffffffffff168152602001908152602001600020600101600160038110610ec257610ec161324d565b5b602091828204019190069054906101000a900460ff1660ff16145b80610f5757508660ff16600560003373ffffffffffffffffffffffffffffffffffffffff1673ffffffffffffffffffffffffffffffffffffffff168152602001908152602001600020600101600260038110610f3c57610f3b61324d565b5b602091828204019190069054906101000a900460ff1660ff16145b610f96576040517f08c379a0000000000000000000000000000000000000000000000000000000008152600401610f8d906132ee565b60405180910390fd5b6000610fa588888888886123ee565b90506006600082815260200190815260200160002060000160009054906101000a900460ff1661100a576040517f08c379a000000000000000000000000000000000000000000000000000000000815260040161100190613380565b60405180910390fd5b6006600082815260200190815260200160002060000160159054906101000a900460ff1661106d576040517f08c379a000000000000000000000000000000000000000000000000000000000815260040161106490613412565b60405180910390fd5b6006600082815260200190815260200160002060010160008460ff1660ff168152602001908152602001600020339080600181540180825580915050600190039060005260206000200160009091909190916101000a81548173ffffffffffffffffffffffffffffffffffffffff021916908373ffffffffffffffffffffffffffffffffffffffff1602179055507f6a8ea1a29831096633247cd9a1de0c713a29d70ea689d01369590933220f3105878787878760405161113295949392919061345f565b60405180910390a160036006600083815260200190815260200160002060010160008560ff1660ff168152602001908152602001600020805490501061123a5761117b8261242a565b60006006600083815260200190815260200160002060000160156101000a81548160ff0219169083151502179055507faeb4486565650e94d026284361f56eac5035ac04191dcd3ba7562d62f49b83d087878787876040516111e195949392919061345f565b60405180910390a16112398787878080601f016020809104026020016040519081016040528093929190818152602001838380828437600081840152601f19601f82011690508083019250505050505050868661245c565b5b5050505050505050565b600381565b60008054906101000a900473ffffffffffffffffffffffffffffffffffffffff1673ffffffffffffffffffffffffffffffffffffffff1663e75808da6040518163ffffffff1660e01b8152600401602060405180830381865afa1580156112b4573d6000803e3d6000fd5b505050506040513d601f19601f820116820180604052508101906112d8919061304a565b611317576040517f08c379a000000000000000000000000000000000000000000000000000000000815260040161130e906130e9565b60405180910390fd5b60006113688585858080601f016020809104026020016040519081016040528093929190818152602001838380828437600081840152601f19601f82011690508083019250505050505050846122eb565b905061137381612321565b61137c81612387565b600061138933600a6125a5565b9050600061139a82888888886123ee565b905060006006600083815260200190815260200160002090508060000160009054906101000a900460ff1615611405576040517f08c379a00000000000000000000000000000000000000000000000000000000081526004016113fc9061351f565b60405180910390fd5b600073ffffffffffffffffffffffffffffffffffffffff168160000160019054906101000a900473ffffffffffffffffffffffffffffffffffffffff1673ffffffffffffffffffffffffffffffffffffffff1614611498576040517f08c379a000000000000000000000000000000000000000000000000000000000815260040161148f906135d7565b60405180910390fd5b60018160000160006101000a81548160ff021916908315150217905550338160000160016101000a81548173ffffffffffffffffffffffffffffffffffffffff021916908373ffffffffffffffffffffffffffffffffffffffff16021790555060018160000160156101000a81548160ff0219169083151502179055507fc05d59546c8c492ed391083a1f93b395190ddec6e312d20cc98fa8b2decefc2f838989898960405161154c9594939291906135f7565b60405180910390a15050505050505050565b600160009054906101000a900473ffffffffffffffffffffffffffffffffffffffff1673ffffffffffffffffffffffffffffffffffffffff163373ffffffffffffffffffffffffffffffffffffffff16146115ee576040517f08c379a00000000000000000000000000000000000000000000000000000000081526004016115e590613691565b60405180910390fd5b600260008373ffffffffffffffffffffffffffffffffffffffff1673ffffffffffffffffffffffffffffffffffffffff16815260200190815260200160002060000160009054906101000a900460ff161561167e576040517f08c379a000000000000000000000000000000000000000000000000000000000815260040161167590613723565b60405180910390fd5b80600260008473ffffffffffffffffffffffffffffffffffffffff1673ffffffffffffffffffffffffffffffffffffffff16815260200190815260200160002060010190805190602001906116d492919061271b565b506001600260008473ffffffffffffffffffffffffffffffffffffffff1673ffffffffffffffffffffffffffffffffffffffff16815260200190815260200160002060000160006101000a81548160ff02191690831515021790555060008054906101000a900473ffffffffffffffffffffffffffffffffffffffff1673ffffffffffffffffffffffffffffffffffffffff1663be1f7e06836040518263ffffffff1660e01b81526004016117899190613118565b600060405180830381600087803b1580156117a357600080fd5b505af11580156117b7573d6000803e3d6000fd5b505050505050565b60008054906101000a900473ffffffffffffffffffffffffffffffffffffffff1673ffffffffffffffffffffffffffffffffffffffff1663e75808da6040518163ffffffff1660e01b8152600401602060405180830381865afa15801561182a573d6000803e3d6000fd5b505050506040513d601f19601f8201168201806040525081019061184e919061304a565b61188d576040517f08c379a0000000000000000000000000000000000000000000000000000000008152600401611884906130e9565b60405180910390fd5b600560003373ffffffffffffffffffffffffffffffffffffffff1673ffffffffffffffffffffffffffffffffffffffff16815260200190815260200160002060000160009054906101000a900460ff1661191c576040517f08c379a0000000000000000000000000000000000000000000000000000000008152600401611913906137b5565b60405180910390fd5b600560003373ffffffffffffffffffffffffffffffffffffffff1673ffffffffffffffffffffffffffffffffffffffff168152602001908152602001600020600080820160006101000a81549060ff021916905560018201600061198091906127a1565b50506119ad33670de0b6b3a76400006040518060600160405280602f8152602001613dcc602f91396103a2565b565b60008054906101000a900473ffffffffffffffffffffffffffffffffffffffff1673ffffffffffffffffffffffffffffffffffffffff1663e75808da6040518163ffffffff1660e01b8152600401602060405180830381865afa158015611a1a573d6000803e3d6000fd5b505050506040513d601f19601f82011682018060405250810190611a3e919061304a565b611a7d576040517f08c379a0000000000000000000000000000000000000000000000000000000008152600401611a74906130e9565b60405180910390fd5b6000339050611aa4816040518060600160405280602f8152602001613d72602f9139611fdc565b6000611ab18287876122eb565b90506003600082815260200190815260200160002060000160009054906101000a900460ff1615611b17576040517f08c379a0000000000000000000000000000000000000000000000000000000008152600401611b0e90613847565b60405180910390fd5b6040518061010001604052806001151581526020016000151581526020018373ffffffffffffffffffffffffffffffffffffffff168152602001878152602001868152602001858152602001848152602001600060ff168152506003600083815260200190815260200160002060008201518160000160006101000a81548160ff02191690831515021790555060208201518160000160016101000a81548160ff02191690831515021790555060408201518160000160026101000a81548173ffffffffffffffffffffffffffffffffffffffff021916908373ffffffffffffffffffffffffffffffffffffffff1602179055506060820151816001019080519060200190611c2792919061271b565b506080820151816002015560a0820151816003019080519060200190611c4e92919061271b565b5060c0820151816004019080519060200190611c6b92919061271b565b5060e08201518160050160006101000a81548160ff021916908360ff16021790555090505060008054906101000a900473ffffffffffffffffffffffffffffffffffffffff1673ffffffffffffffffffffffffffffffffffffffff16631d5f1bc7826040518263ffffffff1660e01b8152600401611ce99190613867565b600060405180830381600087803b158015611d0357600080fd5b505af1158015611d17573d6000803e3d6000fd5b50505050505050505050565b670de0b6b3a764000081565b600a81565b60008060009054906101000a900473ffffffffffffffffffffffffffffffffffffffff1673ffffffffffffffffffffffffffffffffffffffff1663e75808da6040518163ffffffff1660e01b8152600401602060405180830381865afa158015611da2573d6000803e3d6000fd5b505050506040513d601f19601f82011682018060405250810190611dc6919061304a565b905090565b60008054906101000a900473ffffffffffffffffffffffffffffffffffffffff1673ffffffffffffffffffffffffffffffffffffffff1663e75808da6040518163ffffffff1660e01b8152600401602060405180830381865afa158015611e36573d6000803e3d6000fd5b505050506040513d601f19601f82011682018060405250810190611e5a919061304a565b611e99576040517f08c379a0000000000000000000000000000000000000000000000000000000008152600401611e90906130e9565b60405180910390fd5b80600260008473ffffffffffffffffffffffffffffffffffffffff1673ffffffffffffffffffffffffffffffffffffffff1681526020019081526020016000206001019080519060200190611eef92919061271b565b506001600260008473ffffffffffffffffffffffffffffffffffffffff1673ffffffffffffffffffffffffffffffffffffffff16815260200190815260200160002060000160006101000a81548160ff02191690831515021790555060008054906101000a900473ffffffffffffffffffffffffffffffffffffffff1673ffffffffffffffffffffffffffffffffffffffff16639b284ae233846040518363ffffffff1660e01b8152600401611fa6929190613882565b600060405180830381600087803b158015611fc057600080fd5b505af1158015611fd4573d6000803e3d6000fd5b505050505050565b600260008373ffffffffffffffffffffffffffffffffffffffff1673ffffffffffffffffffffffffffffffffffffffff16815260200190815260200160002060000160009054906101000a900460ff16819061206e576040517f08c379a00000000000000000000000000000000000000000000000000000000081526004016120659190612ffc565b60405180910390fd5b505050565b61207b6126f9565b6120836126f9565b61208d84846125a5565b816000600381106120a1576120a061324d565b5b602002019060ff16908160ff16815250506120c8846001856120c391906138da565b6125a5565b816001600381106120dc576120db61324d565b5b602002019060ff16908160ff1681525050612103846002856120fe91906138da565b6125a5565b816002600381106121175761211661324d565b5b602002019060ff16908160ff16815250508060006003811061213c5761213b61324d565b5b602002015160ff16816001600381106121585761215761324d565b5b602002015160ff16036121bb578260018260016003811061217c5761217b61324d565b5b602002015161218b919061390e565b6121959190613974565b816001600381106121a9576121a861324d565b5b602002019060ff16908160ff16815250505b806000600381106121cf576121ce61324d565b5b602002015160ff16816002600381106121eb576121ea61324d565b5b602002015160ff160361224e578260018260026003811061220f5761220e61324d565b5b602002015161221e919061390e565b6122289190613974565b8160026003811061223c5761223b61324d565b5b602002019060ff16908160ff16815250505b806001600381106122625761226161324d565b5b602002015160ff168160026003811061227e5761227d61324d565b5b602002015160ff16036122e157826001826002600381106122a2576122a161324d565b5b60200201516122b1919061390e565b6122bb9190613974565b816002600381106122cf576122ce61324d565b5b602002019060ff16908160ff16815250505b8091505092915050565b600083838360405160200161230293929190613a4a565b6040516020818303038152906040528051906020012090509392505050565b6003600082815260200190815260200160002060000160009054906101000a900460ff16612384576040517f08c379a000000000000000000000000000000000000000000000000000000000815260040161237b90613af5565b60405180910390fd5b50565b6003600082815260200190815260200160002060000160019054906101000a900460ff16156123eb576040517f08c379a00000000000000000000000000000000000000000000000000000000081526004016123e290613b87565b60405180910390fd5b50565b60008585858585604051602001612409959493929190613c02565b60405160208183030381529060405280519060200120905095945050505050565b60016003600083815260200190815260200160002060000160016101000a81548160ff02191690831515021790555050565b60006124698585856122eb565b905061247481612321565b601460ff168260ff16036125125760008054906101000a900473ffffffffffffffffffffffffffffffffffffffff1673ffffffffffffffffffffffffffffffffffffffff1663baf2a018826040518263ffffffff1660e01b81526004016124db9190613867565b600060405180830381600087803b1580156124f557600080fd5b505af1158015612509573d6000803e3d6000fd5b5050505061259e565b60008054906101000a900473ffffffffffffffffffffffffffffffffffffffff1673ffffffffffffffffffffffffffffffffffffffff166344e74e99826040518263ffffffff1660e01b815260040161256b9190613867565b600060405180830381600087803b15801561258557600080fd5b505af1158015612599573d6000803e3d6000fd5b505050505b5050505050565b6000808260ff16600460009054906101000a900460ff1660ff16436125ca9190613c4e565b40600460009054906101000a900460ff16866040516020016125ee93929190613ca3565b6040516020818303038152906040528051906020012060001c6126119190613ce0565b905060056001600460009054906101000a900460ff16612631919061390e565b61263b9190613974565b600460006101000a81548160ff021916908360ff1602179055508091505092915050565b826003601f016020900481019282156126e85791602002820160005b838211156126b957835183826101000a81548160ff021916908360ff160217905550926020019260010160208160000104928301926001030261267b565b80156126e65782816101000a81549060ff02191690556001016020816000010492830192600103026126b9565b505b5090506126f591906127a8565b5090565b6040518060600160405280600390602082028036833780820191505090505090565b82805461272790613d40565b90600052602060002090601f0160209004810192826127495760008555612790565b82601f1061276257805160ff1916838001178555612790565b82800160010185558215612790579182015b8281111561278f578251825591602001919060010190612774565b5b50905061279d91906127a8565b5090565b5060009055565b5b808211156127c15760008160009055506001016127a9565b5090565b600060ff82169050919050565b6127db816127c5565b82525050565b60006020820190506127f660008301846127d2565b92915050565b6000604051905090565b600080fd5b600080fd5b600073ffffffffffffffffffffffffffffffffffffffff82169050919050565b600061283b82612810565b9050919050565b61284b81612830565b811461285657600080fd5b50565b60008135905061286881612842565b92915050565b600080fd5b600080fd5b6000601f19601f8301169050919050565b7f4e487b7100000000000000000000000000000000000000000000000000000000600052604160045260246000fd5b6128c182612878565b810181811067ffffffffffffffff821117156128e0576128df612889565b5b80604052505050565b60006128f36127fc565b90506128ff82826128b8565b919050565b600067ffffffffffffffff82111561291f5761291e612889565b5b61292882612878565b9050602081019050919050565b82818337600083830152505050565b600061295761295284612904565b6128e9565b90508281526020810184848401111561297357612972612873565b5b61297e848285612935565b509392505050565b600082601f83011261299b5761299a61286e565b5b81356129ab848260208601612944565b91505092915050565b6000819050919050565b6129c7816129b4565b81146129d257600080fd5b50565b6000813590506129e4816129be565b92915050565b600080600060608486031215612a0357612a02612806565b5b6000612a1186828701612859565b935050602084013567ffffffffffffffff811115612a3257612a3161280b565b5b612a3e86828701612986565b9250506040612a4f868287016129d5565b9150509250925092565b600060039050919050565b600081905092915050565b6000819050919050565b612a82816127c5565b82525050565b6000612a948383612a79565b60208301905092915050565b6000602082019050919050565b612ab681612a59565b612ac08184612a64565b9250612acb82612a6f565b8060005b83811015612afc578151612ae38782612a88565b9650612aee83612aa0565b925050600181019050612acf565b505050505050565b6000606082019050612b196000830184612aad565b92915050565b612b28816127c5565b8114612b3357600080fd5b50565b600081359050612b4581612b1f565b92915050565b600080fd5b600080fd5b60008083601f840112612b6b57612b6a61286e565b5b8235905067ffffffffffffffff811115612b8857612b87612b4b565b5b602083019150836001820283011115612ba457612ba3612b50565b5b9250929050565b60008060008060008060a08789031215612bc857612bc7612806565b5b6000612bd689828a01612b36565b9650506020612be789828a01612859565b955050604087013567ffffffffffffffff811115612c0857612c0761280b565b5b612c1489828a01612b55565b94509450506060612c2789828a016129d5565b9250506080612c3889828a01612b36565b9150509295509295509295565b612c4e816129b4565b82525050565b6000602082019050612c696000830184612c45565b92915050565b60008060008060608587031215612c8957612c88612806565b5b6000612c9787828801612859565b945050602085013567ffffffffffffffff811115612cb857612cb761280b565b5b612cc487828801612b55565b93509350506040612cd7878288016129d5565b91505092959194509250565b60008060408385031215612cfa57612cf9612806565b5b6000612d0885828601612859565b925050602083013567ffffffffffffffff811115612d2957612d2861280b565b5b612d3585828601612986565b9150509250929050565b60008060008060808587031215612d5957612d58612806565b5b600085013567ffffffffffffffff811115612d7757612d7661280b565b5b612d8387828801612986565b9450506020612d94878288016129d5565b935050604085013567ffffffffffffffff811115612db557612db461280b565b5b612dc187828801612986565b925050606085013567ffffffffffffffff811115612de257612de161280b565b5b612dee87828801612986565b91505092959194509250565b60008115159050919050565b612e0f81612dfa565b82525050565b6000602082019050612e2a6000830184612e06565b92915050565b600082825260208201905092915050565b7f546865207061796565206973206e6f7420612076616c69642061646472657373600082015250565b6000612e77602083612e30565b9150612e8282612e41565b602082019050919050565b60006020820190508181036000830152612ea681612e6a565b9050919050565b7f4f6e6c7920706f7369746976652063726564697420616d6f756e742063616e2060008201527f62652077697468647261776e0000000000000000000000000000000000000000602082015250565b6000612f09602c83612e30565b9150612f1482612ead565b604082019050919050565b60006020820190508181036000830152612f3881612efc565b9050919050565b600081905092915050565b50565b6000612f5a600083612f3f565b9150612f6582612f4a565b600082019050919050565b6000612f7b82612f4d565b9150819050919050565b600081519050919050565b60005b83811015612fae578082015181840152602081019050612f93565b83811115612fbd576000848401525b50505050565b6000612fce82612f85565b612fd88185612e30565b9350612fe8818560208601612f90565b612ff181612878565b840191505092915050565b600060208201905081810360008301526130168184612fc3565b905092915050565b61302781612dfa565b811461303257600080fd5b50565b6000815190506130448161301e565b92915050565b6000602082840312156130605761305f612806565b5b600061306e84828501613035565b91505092915050565b7f436f6e74726163742069732063757272656e746c79206e6f74206f706572617460008201527f696f6e616c000000000000000000000000000000000000000000000000000000602082015250565b60006130d3602583612e30565b91506130de82613077565b604082019050919050565b60006020820190508181036000830152613102816130c6565b9050919050565b61311281612830565b82525050565b600060208201905061312d6000830184613109565b92915050565b7f526567697374726174696f6e2066656520697320726571756972656400000000600082015250565b6000613169601c83612e30565b915061317482613133565b602082019050919050565b600060208201905081810360008301526131988161315c565b9050919050565b6000819050919050565b6131b28161319f565b82525050565b60006040820190506131cd6000830185613109565b6131da60208301846131a9565b9392505050565b7f4e6f74207265676973746572656420617320616e206f7261636c650000000000600082015250565b6000613217601b83612e30565b9150613222826131e1565b602082019050919050565b600060208201905081810360008301526132468161320a565b9050919050565b7f4e487b7100000000000000000000000000000000000000000000000000000000600052603260045260246000fd5b7f496e64657820646f6573206e6f74206d61746368206f7261636c65207265717560008201527f6573740000000000000000000000000000000000000000000000000000000000602082015250565b60006132d8602383612e30565b91506132e38261327c565b604082019050919050565b60006020820190508181036000830152613307816132cb565b9050919050565b7f546865207375626d697474656420666c696768742073746174757320696e666f60008201527f726d6174696f6e20686173206e65766572206265656e20726571756573746564602082015250565b600061336a604083612e30565b91506133758261330e565b604082019050919050565b600060208201905081810360008301526133998161335d565b9050919050565b7f54686520666c696768742073746174757320696e666f726d6174696f6e20726560008201527f717565737420686173206265656e20636c6f7365640000000000000000000000602082015250565b60006133fc603583612e30565b9150613407826133a0565b604082019050919050565b6000602082019050818103600083015261342b816133ef565b9050919050565b600061343e8385612e30565b935061344b838584612935565b61345483612878565b840190509392505050565b60006080820190506134746000830188613109565b8181036020830152613487818688613432565b90506134966040830185612c45565b6134a360608301846127d2565b9695505050505050565b7f43616e206e6f74207265717565737420666c696768742073746174757320696e60008201527f666f2077697468207468652073616d6520696e64657820747769636500000000602082015250565b6000613509603c83612e30565b9150613514826134ad565b604082019050919050565b60006020820190508181036000830152613538816134fc565b9050919050565b7f5468652073616d65206f7261636c65207265717565737420746f20726571756560008201527f737420666c6967687420696e666f726d6174696f6e2063616e6e6f742062652060208201527f646f6e6520747769636500000000000000000000000000000000000000000000604082015250565b60006135c1604a83612e30565b91506135cc8261353f565b606082019050919050565b600060208201905081810360008301526135f0816135b4565b9050919050565b600060808201905061360c60008301886127d2565b6136196020830187613109565b818103604083015261362c818587613432565b905061363b6060830184612c45565b9695505050505050565b7f43616c6c6572206973206e6f7420636f6e7472616374206f776e657200000000600082015250565b600061367b601c83612e30565b915061368682613645565b602082019050919050565b600060208201905081810360008301526136aa8161366e565b9050919050565b7f4169726c696e652063616e6e6f7420626520726567697374657265642074776960008201527f6365000000000000000000000000000000000000000000000000000000000000602082015250565b600061370d602283612e30565b9150613718826136b1565b604082019050919050565b6000602082019050818103600083015261373c81613700565b9050919050565b7f4f6e6c7920612072656769737465726564206f7261636c652063616e2062652060008201527f756e726567697374657265640000000000000000000000000000000000000000602082015250565b600061379f602c83612e30565b91506137aa82613743565b604082019050919050565b600060208201905081810360008301526137ce81613792565b9050919050565b7f5468652073616d6520666c696768742063616e6e6f742062652072656769737460008201527f6572656420747769636500000000000000000000000000000000000000000000602082015250565b6000613831602a83612e30565b915061383c826137d5565b604082019050919050565b6000602082019050818103600083015261386081613824565b9050919050565b600060208201905061387c60008301846131a9565b92915050565b60006040820190506138976000830185613109565b6138a46020830184613109565b9392505050565b7f4e487b7100000000000000000000000000000000000000000000000000000000600052601160045260246000fd5b60006138e5826127c5565b91506138f0836127c5565b925082821015613903576139026138ab565b5b828203905092915050565b6000613919826127c5565b9150613924836127c5565b92508260ff0382111561393a576139396138ab565b5b828201905092915050565b7f4e487b7100000000000000000000000000000000000000000000000000000000600052601260045260246000fd5b600061397f826127c5565b915061398a836127c5565b92508261399a57613999613945565b5b828206905092915050565b60008160601b9050919050565b60006139bd826139a5565b9050919050565b60006139cf826139b2565b9050919050565b6139e76139e282612830565b6139c4565b82525050565b600081905092915050565b6000613a0382612f85565b613a0d81856139ed565b9350613a1d818560208601612f90565b80840191505092915050565b6000819050919050565b613a44613a3f826129b4565b613a29565b82525050565b6000613a5682866139d6565b601482019150613a6682856139f8565b9150613a728284613a33565b602082019150819050949350505050565b7f54686520666c6967687420686173206e6f74206265656e20726567697374657260008201527f6564000000000000000000000000000000000000000000000000000000000000602082015250565b6000613adf602283612e30565b9150613aea82613a83565b604082019050919050565b60006020820190508181036000830152613b0e81613ad2565b9050919050565b7f54686520666c6967687420686173206265656e20616c726561647920636c6f7360008201527f6564000000000000000000000000000000000000000000000000000000000000602082015250565b6000613b71602283612e30565b9150613b7c82613b15565b604082019050919050565b60006020820190508181036000830152613ba081613b64565b9050919050565b60008160f81b9050919050565b6000613bbf82613ba7565b9050919050565b613bd7613bd2826127c5565b613bb4565b82525050565b6000613be983856139ed565b9350613bf6838584612935565b82840190509392505050565b6000613c0e8288613bc6565b600182019150613c1e82876139d6565b601482019150613c2f828587613bdd565b9150613c3b8284613a33565b6020820191508190509695505050505050565b6000613c59826129b4565b9150613c64836129b4565b925082821015613c7757613c766138ab565b5b828203905092915050565b6000819050919050565b613c9d613c988261319f565b613c82565b82525050565b6000613caf8286613c8c565b602082019150613cbf8285613bc6565b600182019150613ccf82846139d6565b601482019150819050949350505050565b6000613ceb826129b4565b9150613cf6836129b4565b925082613d0657613d05613945565b5b828206905092915050565b7f4e487b7100000000000000000000000000000000000000000000000000000000600052602260045260246000fd5b60006002820490506001821680613d5857607f821691505b602082108103613d6b57613d6a613d11565b5b5091905056fe4f6e6c7920616e2072656769737465726564206169726c696e652063616e20726567697374657220666c69676874734f6e6c792072656769737465726564206169726c696e652063616e2070617920696e73757265722066656543616e6e6f7420706179206261636b2074686520726567697374726174696f6e2066656520666f72206f7261636c65a264697066735822122002df3dc69a968d5d18832d8021d51130f0144f6a8d9ceb03101a5a3f1890470564736f6c634300080d0033",
  "immutableReferences": {},
  "source": "// SPDX-License-Identifier: MIT\npragma solidity ^0.8.5;\n\nimport \"./shared/OwnableContract.sol\";\n\nimport \"./app/AppContract.sol\";\nimport \"./app/OracleController.sol\";\nimport \"./app/AppInsurerController.sol\";\nimport \"./app/AppInsuranceController.sol\";\n\ncontract FlightSuretyApp is OwnableContract, AppContract, AppInsurerController, AppInsuranceController, OracleController {\n\n    constructor(address flightSuretyDataAddress) OwnableContract() AppContract(flightSuretyDataAddress) {\n    }\n}   \n",
  "sourcePath": "/Volumes/Others/blockchain/udacity/flight-udacity-dapp/contracts/FlightSuretyApp.sol",
  "compiler": {
    "name": "solc",
    "version": "0.8.13+commit.abaa5c0e.Emscripten.clang"
  },
  "schemaVersion": "3.4.7",
  "updatedAt": "2022-06-11T12:15:55.479Z",
  "devdoc": {
    "kind": "dev",
    "methods": {},
    "version": 1
  },
  "userdoc": {
    "events": {
      "OracleRegistered(address)": {
        "notice": "API"
      }
    },
    "kind": "user",
    "methods": {
      "registerFlight(string,uint256,string,string)": {
        "notice": "API"
      },
      "registerTheFirstAirline(address,string)": {
        "notice": "API"
      }
    },
    "version": 1
  }
}